{
  "contractName": "FlipGame",
  "abi": [
    {
      "inputs": [],
      "stateMutability": "nonpayable",
      "type": "constructor"
    },
    {
      "anonymous": false,
      "inputs": [
        {
          "indexed": true,
          "internalType": "address",
          "name": "user",
          "type": "address"
        },
        {
          "indexed": false,
          "internalType": "uint256",
          "name": "side",
          "type": "uint256"
        },
        {
          "indexed": false,
          "internalType": "bool",
          "name": "hasWon",
          "type": "bool"
        }
      ],
      "name": "Flpped",
      "type": "event"
    },
    {
      "inputs": [
        {
          "internalType": "uint256",
          "name": "side",
          "type": "uint256"
        }
      ],
      "name": "Flip",
      "outputs": [],
      "stateMutability": "payable",
      "type": "function",
      "payable": true
    }
  ],
  "bytecode": "0x608060405234801561001057600080fd5b50336000806101000a81548173ffffffffffffffffffffffffffffffffffffffff021916908373ffffffffffffffffffffffffffffffffffffffff1602179055506103e5806100606000396000f3fe60806040526004361061001e5760003560e01c8063fc25ee6c14610023575b600080fd5b61003d600480360381019061003891906101fd565b61003f565b005b600181111561004d57600080fd5b60008060009054906101000a900473ffffffffffffffffffffffffffffffffffffffff1673ffffffffffffffffffffffffffffffffffffffff166108fc349081150290604051600060405180830381858888f193505050501580156100b6573d6000803e3d6000fd5b50600060026100c361018f565b6100cd9190610259565b9050808303610135576001915060018060003373ffffffffffffffffffffffffffffffffffffffff1673ffffffffffffffffffffffffffffffffffffffff168152602001908152602001600020600082825461012991906102b9565b9250508190555061013a565b600091505b3373ffffffffffffffffffffffffffffffffffffffff167fa2eb8281a43c28aa516c7b6922c9495cbf736558488c76eb315a7aa4480528698484604051610182929190610339565b60405180910390a2505050565b600044426040516020016101a4929190610383565b6040516020818303038152906040528051906020012060001c905090565b600080fd5b6000819050919050565b6101da816101c7565b81146101e557600080fd5b50565b6000813590506101f7816101d1565b92915050565b600060208284031215610213576102126101c2565b5b6000610221848285016101e8565b91505092915050565b7f4e487b7100000000000000000000000000000000000000000000000000000000600052601260045260246000fd5b6000610264826101c7565b915061026f836101c7565b92508261027f5761027e61022a565b5b828206905092915050565b7f4e487b7100000000000000000000000000000000000000000000000000000000600052601160045260246000fd5b60006102c4826101c7565b91506102cf836101c7565b9250827fffffffffffffffffffffffffffffffffffffffffffffffffffffffffffffffff038211156103045761030361028a565b5b828201905092915050565b610318816101c7565b82525050565b60008115159050919050565b6103338161031e565b82525050565b600060408201905061034e600083018561030f565b61035b602083018461032a565b9392505050565b6000819050919050565b61037d610378826101c7565b610362565b82525050565b600061038f828561036c565b60208201915061039f828461036c565b602082019150819050939250505056fea264697066735822122046603f8b57fd2a6735518930e98391ef0bebd7fe3443e41092d1f5f9c3e7dc3d64736f6c634300080d0033",
  "immutableReferences": {},
  "source": "// SPDX-License-Identifier: MIT\npragma solidity ^0.8.13;\n\ncontract FlipGame{\n    event Flpped(address indexed user, uint side, bool hasWon);\n    address payable owner;\n    mapping(address => uint) Leaderboard;\n    constructor(){\n        owner = payable(msg.sender);\n    }\n\n    function Flip(uint side) public payable{\n        require(side <= 1);\n        bool hasWon;\n\n        // transfer money to owner\n        owner.transfer(msg.value);\n\n         uint randomFlip = random() % 2;\n         if(side == randomFlip){\n            hasWon = true;\n            Leaderboard[msg.sender] += 1;\n         }\n         else{\n             hasWon = false;\n         }\n\n         emit Flpped(msg.sender, side, hasWon);\n    }\n\n     function random() private view returns (uint) {\n        return uint(keccak256(abi.encodePacked(block.difficulty, block.timestamp)));\n    }\n\n}",
  "sourcePath": "/Users/mac/Documents/LEARNING/DAPP etherum network/flip-coin/backend/contracts/FlipGame.sol",
  "compiler": {
    "name": "solc",
    "version": "0.8.13+commit.abaa5c0e.Emscripten.clang"
  },
  "schemaVersion": "3.4.3",
  "updatedAt": "2022-04-16T11:44:07.173Z",
  "networkType": "ethereum",
  "devdoc": {
    "kind": "dev",
    "methods": {},
    "version": 1
  },
  "userdoc": {
    "kind": "user",
    "methods": {},
    "version": 1
  }
}